:020000040800F2
:10000000E0060020CD0100082D07000807060008C3
:100010006D06000875020008C51200080000000007
:10002000000000000000000000000000D1090008EE
:100030001504000800000000B5070008FD0A0008CC
:10004000E7010008E7010008E7010008E7010008F0
:10005000E7010008E7010008E7010008E7010008E0
:10006000E7010008E7010008E7010008E7010008D0
:10007000E7010008E7010008E7010008E7010008C0
:10008000E7010008E7010008E7010008E7010008B0
:10009000E7010008E7010008E7010008E7010008A0
:1000A000E7010008A10D0008E7010008E7010008CA
:1000B000F50D0008E7010008090E0008E701000837
:1000C000E7010008E7010008E7010008E701000870
:1000D000E7010008E7010008E7010008E701000860
:1000E000E7010008E7010008E7010008E701000850
:1000F000E7010008E7010008E7010008E701000840
:10010000E7010008E7010008E7010008E70100082F
:10011000E7010008E7010008E7010008E70100081F
:10012000E7010008E7010008E7010008E70100080F
:1001300000F002F800F03AF80AA090E8000C8244BF
:100140008344AAF10107DA4501D100F02FF8AFF29C
:10015000090EBAE80F0013F0010F18BFFB1A43F0A5
:10016000010318475018000070180000103A24BF0F
:1001700078C878C1FAD8520724BF30C830C144BF0C
:1001800004680C607047000000230024002500264E
:10019000103A28BF78C1FBD8520728BF30C148BFEA
:1001A0000B6070471FB51FBD10B510BD00F033F8D0
:1001B0001146FFF7F7FF01F045F900F051F803B4DD
:1001C000FFF7F2FF03BC01F093F8000009488047F5
:1001D00009480047FEE7FEE7FEE7FEE7FEE7FEE729
:1001E000FEE7FEE7FEE7FEE704480549054A064B41
:1001F00070470000010B000831010008E0000020FA
:10020000E0060020E0020020E00200207047704776
:10021000704770477047754600F028F8AE460500F5
:100220006946534620F00700854618B020B5FFF711
:10023000DBFFBDE820404FF000064FF000074FF015
:1002400000084FF0000B21F00701AC46ACE8C009F4
:10025000ACE8C009ACE8C009ACE8C0098D467047FD
:100260000446AFF300802046FFF7A9FF004870471F
:100270008000002000BFFEE770B51348006801F061
:10028000D9F90646012100F073F81048006801F022
:10029000D1F90646022100F06BF8022000F01CF8AC
:1002A000054600240CE000BF0948008800F040002B
:1002B0000028F9D00748005D0549091D0880641C25
:1002C000AC42F0DB70BD00000400002008000020FC
:1002D000003801405400002001460A2900DC09B919
:1002E000002070472420214A10700B293CD2DFE8FF
:1002F00001F03B060B10151A1F24292F350005208D
:100300001A4A50710620ECE70920184A50720A2058
:10031000E7E70D20154A50730E20E2E71120134A3B
:1003200050741220DDE71520104A50751620D8E7CA
:1003300019200E4A50761A20D3E71D200B4A507719
:100340001E20CEE72120094A82F821002220C8E79A
:100350002520064A82F825002620C2E72920034AE4
:1003600082F829002A20BCE70020BAE754000020C8
:1003700013B50C460A2C00DC04B91CBD0B2C43D26F
:10038000DFE804F042060C12181E242A30363C0026
:1003900001221F49684600F09DF835E005221C49FE
:1003A000684600F097F82FE009221949684600F0E6
:1003B00091F829E00D221649684600F08BF823E0F9
:1003C00011221349684600F085F81DE015221049F6
:1003D000684600F07FF817E019220D49684600F0E2
:1003E00079F811E01D220A49684600F073F80BE025
:1003F00021220749684600F06DF805E025220449EE
:10040000684600F067F800BF00BF00BFB5E7000016
:10041000540000207047000000B589B0012104207D
:1004200000F02EFA0121082000F03AFAC020ADF8C1
:10043000040004208DF8070001A9244800F058F8B2
:100440001E208DF8200001208DF823008DF821005A
:1004500003208DF8220008A800F06AF905A800F032
:100460005BFE0020ADF814004FF6FF70ADF81800E9
:100470000020ADF81A00ADF8160005A9144800F0E8
:10048000F9FD00231A460321114800F0E7FC02A8F9
:1004900000F064FD0A20ADF8100002A90C4800F03D
:1004A00007FD01210A4800F0C7FC01221146084857
:1004B00000F05DFD42F21071054800F0ACFD012135
:1004C000034800F0BFFC09B000BD0000000C014073
:1004D0000008004030B503461C788C545D78541CED
:1004E0000D559D78941C0D55DD78D41C0D5530BDEF
:1004F0002DE9F041024600250026002000230024BB
:10050000002791F803C00CF00F0591F803C00CF020
:10051000100CBCF1000F03D091F802C04CEA0505A5
:1005200091F800C0BCF1000F31D0146800202BE01E
:100530004FF0010C0CFA00F3B1F800C00CEA03060E
:100540009E4220D183004FF00F0C0CFA03F7BC43FE
:1005500005FA03FC4CEA040491F803C0BCF1280F2F
:1005600006D14FF0010C0CFA00FCC2F814C00AE0EE
:1005700091F803C0BCF1480F05D14FF0010C0CFA03
:1005800000FCC2F810C0401C0828D1D31460B1F898
:1005900000C0BCF1FF0F34DD546800202EE000F1F4
:1005A000080C4FF0010808FA0CF3B1F800C00CEA8F
:1005B00003069E4221D183004FF00F0C0CFA03F783
:1005C000BC4305FA03FC4CEA040491F803C0BCF1F7
:1005D000280F05D100F1080C08FA0CF8C2F81480B5
:1005E00091F803C0BCF1480F07D100F1080C4FF09F
:1005F000010808FA0CF8C2F81080401C0828CED375
:100600005460BDE8F08100BFFEE7000008B501219D
:10061000042000F045F948208DF803002420ADF8AF
:10062000000003208DF8020069460248FFF760FFD2
:1006300008BD00000008014070B54FF482750A2023
:1006400000F05AFE0446012C05D1074800682844F2
:100650000549086006E0022C04D103480068401BED
:100660000149086070BD00000800002000BFFEE7DF
:1006700008B50121082000F013F910208DF80300BF
:100680004FF44050ADF8000003208DF80200694699
:100690000148FFF72DFF08BD000C014030B589B0BF
:1006A00005460C460121022000F0EAF8012108204D
:1006B00000F0F6F818208DF807000220ADF80400CD
:1006C00003208DF8060001A91648FFF711FFADF8C9
:1006D0001C50ADF818400020ADF81A00ADF81E000F
:1006E00006A9114800F0C6FC6020ADF80800012002
:1006F000ADF80A000020ADF80E00ADF8100002A918
:10070000094800F03DFC0821074800F077FC012172
:10071000054800F085FB0121034800F093FB09B078
:1007200030BD0000000C0140000400407047000094
:1007300070B5002100230F22C47804B3154C24683F
:1007400004F4E064C4F5E064210AC1F10403CA4082
:10075000447804FA03F184781440214309010E4CD3
:100760000678A155047804F01F050124AC400578F3
:100770006D11AD0005F1E025C5F8004109E00478F0
:1007800004F01F050124AC40044D0678761145F8AD
:10079000264070BD0CED00E000E400E080E100E0E8
:1007A00002490143024A1160704700000000FA0547
:1007B0000CED00E0704700002DE9F04704460D46BF
:1007C000281B00F037FF25490860084601682448C7
:1007D000006800F0A5FE2249086022492048006810
:1007E00001F040F802D21F481D4908601E491C480C
:1007F000006800F037FF02D21B48194908601B4807
:1008000001681648006801F05FF8804618480168E2
:10081000404600F05BFF0646114801681548006835
:1008200000F054FF80460D4801681348006800F04E
:100830004DFF8146414600F073FE0746314600F009
:100840006FFE0E49086005480068084908600B48BB
:10085000006800F0D3FEBDE8F087000044000020EF
:100860004C00002000803B4500803BC5500000202C
:100870001800002014000020100000204800002074
:1008800029B1064AD2690243044BDA6104E0034A03
:10089000D2698243014BDA617047000000100240C8
:1008A00029B1064A92690243044B9A6104E0034A63
:1008B00092698243014B9A61704700000010024028
:1008C00030B500210022002400232D4D6D6805F075
:1008D0000C0121B1042905D0082923D105E0294DB7
:1008E000056022E0274D05601FE0254D6D6805F489
:1008F0007012234D6D6805F48034022505EB924299
:100900001CB9214D554305600BE01D4D6D6805F484
:1009100000351DB11C4D5543056002E0194D55438E
:10092000056002E0174D056000BF00BF144D6D6803
:1009300005F0F0010909154D6B5C0568DD40456067
:100940000F4D6D6805F4E061090A104D6B5C456858
:10095000DD4085600A4D6D6805F46051C90A0B4D94
:100960006B5C4568DD40C560054D6D6805F4404130
:10097000890B074D6B5CC568B5FBF3F5056130BDB0
:100980000010024000127A0000093D002000002003
:10099000300000200146022904D0032907D0042991
:1009A0000DD108E04FF08042928C10B209E0064A67
:1009B000128810B205E0054A128810B201E000204A
:1009C00000BF00BF7047000024040040240800401E
:1009D000704710B500F002F810BD00000CB5002003
:1009E000019000903348006840F48030314908603D
:1009F00000BF3048006800F4003000900198401CAF
:100A00000190009818B90198B0F5A06FF1D129486C
:100A1000006800F4003010B10120009001E00020D7
:100A200000900098012843D12348006840F010004E
:100A3000214908600846006820F003000860084665
:100A4000006840F0020008601A4840681949486090
:100A50000846406848600846406840F48060486046
:100A60000846406820F47C1048600846406840F41E
:100A7000E81048600846006840F08070086000BFD9
:100A80000C48006800F000700028F9D00948406860
:100A900020F00300074948600846406840F0020023
:100AA000486000BF0348406800F00C000828F9D1F6
:100AB0000CBD0000001002400020024000B50246BC
:100AC000002A07DA00200A49086001200949C1F814
:100AD000B40106E001200649086000200549C1F87C
:100AE000B401104600F0D3FC0349088000BD0000AB
:100AF000B081214200802142400400407047000044
:100B000010B51348006840F001001149086008461C
:100B10004068104908400E494860084600680E4980
:100B200008400B4908600846006820F480200860EF
:100B30000846406820F4FE0048604FF41F008860BB
:100B4000FFF747FF4FF000600449086010BD000048
:100B5000001002400000FFF8FFFFF6FE08ED00E085
:100B6000F0B50C46154600220021068C4FF6FE77A4
:100B70003E400684028B018C4FF60C7632407E1C80
:100B800006EA03162E433243104EB0420ED0104EEA
:100B9000B0420BD0B0F1804F08D00E4EB04205D01D
:100BA0000D4EB04202D00D4EB04206D14FF6FD764A
:100BB000314044F00106314305E04FF6F57631400F
:100BC00044F00106314302830184F0BD002C014052
:100BD000003401400004004000080040000C0040C8
:100BE000F0B50C461546002200210026078C4FF672
:100BF000EF7C07EA0C070784028B018C4FF6FF7726
:100C000007EA041640F6FF473A404FF6FF7707EA37
:100C100003373A434FF6FF7707EA05273A43114F68
:100C2000B8420ED0104FB8420BD0B0F1804F08D070
:100C30000E4FB84205D00E4FB84202D00D4FB84209
:100C400006D14FF6DF77394046F01007394305E00B
:100C50004FF65F77394044F010073943028301842F
:100C6000F0BD0000002C01400034014000040040B1
:100C700000080040000C0040F0B50C46154600226C
:100C800000210026078C4FF6FF6C07EA0C0707844B
:100C9000828B018C4FF6FF7707EA04264FF60C771C
:100CA0003A404FF6FF7707EA03172F433A43114FB5
:100CB000B8420ED0104FB8420BD0B0F1804F08D0E0
:100CC0000E4FB84205D00E4FB84202D00D4FB84279
:100CD00006D14FF6FF57394046F48077394305E097
:100CE0004FF2FF57394044F48077394382830184BF
:100CF000F0BD0000002C0140003401400004004021
:100D000000080040000C0040F0B50C4615460022DB
:100D100000210026078C4EF6FF7C07EA0C070784AB
:100D2000828B018C4FF6FF7707EA043640F6FF47C7
:100D30003A404FF6FF7707EA05273A434FF6FF7729
:100D400007EA03373A43114FB8420ED0104FB8426A
:100D50000BD0B0F1804F08D00E4FB84205D00E4FE7
:100D6000B84202D00D4FB84206D14DF6FF77394058
:100D700046F48057394305E047F6FF57394044F4BD
:100D80008057394382830184F0BD0000002C01406C
:100D9000003401400004004000080040000C004006
:100DA00010B501210F4800F07AF8012818D101216F
:100DB0000C4800F044F80420FFF7ECFD0A490860F5
:100DC000FFF73AFC0948016807480068FFF7F4FCA0
:100DD0000749086000F078FA05480068FFF76EFEE2
:100DE000002010BD002C014004000020080000205D
:100DF0000C00002010B50121880700F050F80121F7
:100E0000880700F01CF810BD10B50121034800F060
:100E100046F80121014800F012F810BD000800401A
:100E200021B1028842F08002028004E002884FF67D
:100E30007F731A4002807047CA4302827047CA43D8
:100E40000282704721B1028842F00102028004E070
:100E500002884FF6FE731A4002807047F0B50C46C8
:100E600015461E460021002200230189028B038CB7
:100E70004FF6F877394021434FF6FC473A4040F2AD
:100E800001173A434FF6DD773B404FF6FF7707EA0D
:100E900006172F433B43018102830384F0BD0246C2
:100EA0000020138A0B400BB1012000E000207047A6
:100EB00070B505460C46244885420ED0234885422D
:100EC0000BD0B5F1804F08D02148854205D021488C
:100ED000854202D02048854200D100E000BF208832
:100EE00050B92389A28861882846FFF739FEE18836
:100EF000284600F092F825E0208804280AD12389AA
:100F0000A28861882846FFF76BFEE188284600F03A
:100F10008DF817E0208808280AD12389A2886188E3
:100F20002846FFF7A9FEE188284600F08CF809E082
:100F30002389A28861882846FFF7E6FEE1882846D3
:100F400000F08AF870BD0000002C01400034014020
:100F50000004004000080040000C00400021018017
:100F60004180012181800021C180018170471AB137
:100F700083890B43838102E083898B43838170479C
:100F800070B5002200230024058C4EF6FF76354014
:100F90000584038C8488828B48F6FF752A404FF6BF
:100FA000FF452A400D884FF6FF7606EA05252A43BD
:100FB0004DF6FF752B400D8906EA05352B434D880C
:100FC00006EA05352B430B4DA84202D00A4DA84234
:100FD00008D14BF6FF752C408D894FF6FF7606EA57
:100FE00085152C4384808283CD88A0F840500384EB
:100FF00070BD0000002C0140003401400A46002171
:10100000818B4FF2FF7319404FF6FF7303EA0223FF
:1010100019438183704781847047028B4FF6F373C5
:101020001A400283028B0A4302837047028B4FF2FD
:10103000FF331A400283028B4FF6FF7303EA01234A
:101040001A4302837047828B4FF6F3731A408283F0
:10105000828B0A4382837047828B4FF2FF331A40A0
:101060008283828B4FF6FF7303EA01231A43828344
:1010700070470000002202881D4B98420ED01D4B85
:1010800098420BD0B0F1804F08D01B4B984205D04E
:101090001A4B984202D01A4B984204D14FF68F73E4
:1010A0001A404B881A43174B984207D0164B984268
:1010B00004D04FF6FF431A40CB881A4302808B8836
:1010C00083850B8803850A4B98420BD0094B9842C5
:1010D00008D00E4B984205D00D4B984202D00D4BD4
:1010E000984201D10B7A0386012383827047000066
:1010F000002C014000340140000400400008004082
:10110000000C00400010004000140040004001406E
:1011100000440140004801404FF6FF7181800021EA
:101120000180C18041800172704700007FB5054693
:101130000C460121C802FFF7B3FBADF80850ADF82B
:1011400004400020ADF80A00ADF8060001A90D48E2
:10115000FFF790FF012211460A48FFF708FF192008
:101160008DF8000001208DF803008DF801000320A8
:101170008DF802006846FFF7DBFA01210148FFF70E
:1011800061FE7FBD002C014021B1828942F40052F2
:10119000828104E082894DF6FF731A408281704794
:1011A000F0B50346002400260025002040F66A170B
:1011B000B94200D100BF1846C1F3421401F01F0626
:1011C000012707FA06F5012C01D10C3004E0022CAE
:1011D00001D1103000E014301AB107682F430760C6
:1011E00002E00768AF430760F0BD00002DE9F0475B
:1011F00086B005460E460024A24600BFA146002741
:10120000B08900B100BF2F462C8A4CF6FF70044015
:10121000F08804432C82AC894EF6F3100440B08869
:1012200031890843718908430443AC81AC8A4FF685
:10123000FF400440B0890443AC8201A8FFF740FBA3
:101240001F48874202D1DDF810A001E0DDF80CA0B4
:10125000A88900F4004040B10AEBCA0000EB0A1074
:1012600031684900B0FBF1F807E00AEBCA0000EB77
:101270000A1031688900B0FBF1F86420B8FBF0F087
:1012800004012009642101FB1089A88900F40040B1
:1012900040B1322000EBC900B0FBF1F000F00700D4
:1012A000044308E0322000EB09106421B0FBF1F0A8
:1012B00000F00F0004432C8106B0BDE8F087000069
:1012C0000038014000BFFEE741F6BC30074909681D
:1012D0004242914202DA4142044A116003490968DC
:1012E000814201DD01490860704700000C000020C8
:1012F000014600BF7047000001462D48006828B92C
:101300002C480088401C2B4A108002E00020294A0B
:1013100010802748006828B92748007810B90120B4
:10132000254A107025480078B0B923480078012874
:1013300007D123480078401C214A107001201F4A21
:1013400010701F480078022806D100201C4A107037
:101350001C4A10800220704715480068012804D1FB
:101360000020154A1070154A1070154800780128A1
:101370001CD114480088401C124A10801046008876
:1013800088420ADD0B480088884206DA00200C4AB1
:1013900010700C4A10800120DDE706480088884262
:1013A00004DD0020064A1070064A10800020D2E7B3
:1013B000140121423A0000203400002035000020B2
:1013C00036000020380000204FF0E021096921F0AC
:1013D00004014FF0E0221161C21700EB5272C2F318
:1013E000C702074B1A701946097801EB4102C2EB9C
:1013F000C1114FF6FF7202EAC101024A1180704723
:101400001C0000201E00002001460D4A12884A439D
:101410004FF0E0235A6100229A6101221A6100BF55
:101420004FF0E022106900F001021AB100F480329E
:10143000002AF5D000224FF0E0231A619A6170472C
:101440001E0000204FF4A060FFF7AAF94820FFF724
:10145000BBFF4FF4FA3000F021F8FFF709F9002143
:1014600041F61F40FFF71AF9FFF7D0F8FEF7D4FF57
:1014700041F61F416320FFF759FE6420FFF7C4FFC8
:1014800004E0FEF7F9FE3220FFF7BEFFF9E7014660
:10149000002901DA484200E00846704710B586B0DE
:1014A0000446012144F20400FFF7FAF94FF40070FA
:1014B000ADF8140003208DF8160018208DF81700E1
:1014C00005A91548FFF714F84FF48060ADF8140033
:1014D00004208DF8170005A90F48FFF709F80194BB
:1014E0000020ADF80800ADF80A00ADF80C00ADF82A
:1014F00010000C20ADF80E0001A90848FFF776FE99
:10150000012240F225510548FFF74AFE0121034818
:10151000FFF73AFE06B010BD000801400038014058
:1015200090EA010F48BF81F0004100F1D481421AD6
:101530003CBF801A89184FEAD0524FF07F4C1CEA0A
:10154000410FA2EBD15318BF9CEA026F00F03B8021
:101550004FF0004C4CEA00204CEA012121FA03FC38
:1015600010EB0C0C1ED202F1FF325FEA1C2040EBA4
:10157000C25038BF70471CF07F0F4FEA400C18BFB5
:10158000BCF17F4F38BF7047C3F12003994008BFBB
:1015900020F00100BCF17F4F38BF7047A0F1C04080
:1015A00000F05BB94FEA3C00000A40EBC25028BF94
:1015B0001CF0FF0F4FEA400CE6D018BFBCF17F4F84
:1015C00038BF7047EAE79CEA026F05D010EA5C0F6B
:1015D00008BF00F00040704710B500F0F8F800BFF9
:1015E00064FBBE3E401058BFC0F14040491058BF98
:1015F000C1F140418142EFF30080704741000B0E82
:10160000D3F19E0208D950F400034FEA032323FAD2
:1016100002F048BF4042704710B500F0D8F800BF54
:1016200049922480002070476FF0004282EA200037
:101630007047000010F0004148BF4042B0FA80F30C
:1016400010FA03F2C3F19D030BD051EAC35101EB31
:101650001220530638BF704700F1010008BF20F088
:101660000100704750EA010C00F113801CF5000FD7
:1016700058BFBCF5000F01D48842704707D710F55A
:10168000000F58BF11F5000F15D4884270478942EA
:1016900070471CF5000F04D5BCF5000FF7D581424B
:1016A00070474FF0807C1CEB400F38BF1CEB410FA4
:1016B00001D28142704710B500F089F892244900A8
:1016C0004FF000504FF08051FFF78CBF4FF47F0C6C
:1016D0001CEAD0121EBF1CEAD11392EA0C0F93EA47
:1016E0000C0F00F0478090EA010F48BF42F480726F
:1016F0004FF0004C4CEA00204CEA012102EB0302BF
:10170000A0FB0113A2F50002002918BF43F001035A
:101710005B0028BF4FEA330342EB22425FEA132CFF
:101720004CEBC2502EBFBCEB436FB2F57C0F704741
:101730004FEA036CBCF1004F08BF20F00100B2F586
:101740007C0F38BF70470BD582F0FF0212F5803F47
:10175000C8BF704700F1C040D8BF00F000407047DC
:1017600000F5000C5FEA4C0C48BF7047B0F1C04078
:1017700000F073B890EA010F0CEAD11348BF42F4AD
:101780008072624538BF634504D280EA010000F0F0
:101790000040704710B500F01AF800BF8900013E04
:1017A00000F007B800F009B85FEA410C5FEA1C6C72
:1017B00008D080EA010000F050B85FEA400C5FEA10
:1017C0001C6CF6D14FF00040A0F5800070470EF180
:1017D000020E2EF0030E5EF8044B244204D44FEAAE
:1017E0004102B2F17F4F11D84FEA4003B3F17F4F6E
:1017F0000CD80ED14FEAD07CB2F17F4F0CEB4C0CE1
:101800000CF1020C08BF4CEBD17C04E04FF0080C4B
:1018100001E04FEAD17C0CEB4C0324FA03F404F012
:101820000704B4F1040C06D20EEB840CBDE81040A2
:101830004CF0010C6047DFE80CF0070802024FF0A3
:101840000040A0F5800010BD0846420018BFD2F14C
:10185000807288BF00F0004010BDFF2141EAD050E7
:10186000C005704751EA000C00F113801CF5000F11
:1018700058BFBCF5000F01D48142704707D711F55E
:10188000000F58BF10F5000F15D4814270478942F0
:1018900070471CF5000F04D5BCF5000FF7D5884242
:1018A00070474FF0807C1CEB410F38BF1CEB400FA2
:1018B00001D28842704780EA010081EA000180EA93
:1018C0000100FFF7F8BE000090EA010F48BF81F069
:1018D00000413FF52CAE421A04D882F00042A0EB42
:1018E000020011444FEAD0524FF07F4C1CEA410FE6
:1018F000A2EBD15318BF9CEA026F4AD04FF0004CC4
:101900004CEA00204CEA012121FA03FCB0EB0C0C5C
:101910000FD412F0FE0F36D05FEA4C001DD5001236
:1019200040EBC25038BF70471CF03F0F18BF7047E4
:101930000BE0A2F101025FEA1C2040EBC25038BF6D
:1019400070471CF07F0F18BF7047C3F12003994008
:1019500014BF401E20F00100704780084FEA122398
:1019600008BF7047B0FA80FCA2EB0C02CCF1280C47
:1019700060FA0CF093EA122F04BF00EBC2507047DC
:101980004FEAC3707047130A5FEADC1008BF704764
:10199000F6E79CEA026F04D010EA5C0F08BF002053
:1019A000704710B5FFF713FF40DFF63E81F00040AF
:1019B00070470000D4190008000000205400000007
:1019C0006C010008281A0008540000208C06000052
:1019D0008801000800000000102700001027000008
:1019E000000000000000F042CDCCCC3D0000FA43E6
:1019F00000000000000000000102030401020304D3
:101A000006070809020406080000000000000000A4
:101A100001000000000000000000000000000000C5
:081A20000000000000000000BE
:04000005080001CD21
:00000001FF
