:020000040800F2
:10000000C0060020D5010008E5060008A905000883
:10001000E106000889040008450F00080000000000
:100020000000000000000000000000003D09000882
:100030008D040008000000006D0700080D0B00088B
:10004000EF010008EF010008EF010008EF010008D0
:10005000EF010008EF010008EF010008EF010008C0
:10006000EF010008EF010008EF010008EF010008B0
:10007000EF010008EF010008EF010008EF010008A0
:10008000EF010008EF010008EF010008EF01000890
:10009000EF010008EF010008EF010008EF01000880
:1000A000EF010008710B0008EF010008EF010008E4
:1000B000D10B0008EF010008E50B0008EF01000874
:1000C000EF010008EF010008EF010008EF01000850
:1000D000EF010008EF010008EF010008EF01000840
:1000E000EF010008EF010008EF010008EF01000830
:1000F000EF010008EF010008EF010008EF01000820
:10010000EF010008EF010008EF010008EF0100080F
:10011000EF010008EF010008EF010008EF010008FF
:10012000EF010008EF010008EF010008EF010008EF
:1001300000F002F800F03FF80AA090E8000C8244BA
:100140008344AAF10107DA4501D100F034F8AFF297
:10015000090EBAE80F0013F0010F18BFFB1A43F0A5
:10016000010318472016000040160000103A24BF73
:1001700078C878C1FAD8520724BF30C830C144BF0C
:1001800004680C607047000000230024002500264E
:10019000103A28BF78C1FBD8520728BF30C148BFEA
:1001A0000B607047642900F07780002070471FB50E
:1001B0001FBD10B510BD00F037F91146FFF7F7FF6E
:1001C00000F0B6FF00F055F903B4FFF7F2FF03BCEF
:1001D00000F0C6FE0948804709480047FEE7FEE7F1
:1001E000FEE7FEE7FEE7FEE7FEE7FEE7FEE7FEE7E7
:1001F00004480549054A064B70470000110B0008EA
:1002000031010008C0000020C0060020C00200200C
:10021000C0020020704700000FB4044910B503AAC3
:10022000029800F0D3F810BC5DF814FB2000002009
:100230002DE9F0410E460446002020622046E16888
:10024000884730B3252805D0D4E901219047206A9A
:10025000401CF2E7E168204600278847050018D0D7
:10026000A5F14100192802D820354FF40067324625
:10027000294620462760FFF795FF40B1012804D0AA
:10028000F61D26F007060836D8E7361DD6E72846BD
:10029000DAE7206ABDE8F0812DE9F0410646002446
:1002A00010687529314616A510D0AFF300800028DC
:1002B00002DA404213A507E031688A0701D512A58A
:1002C00002E0490704D511A5012401E0AFF3008045
:1002D00000210A2206F1240709E0B0FBF2FCB0FB82
:1002E000F2F302FB1C00303078541846491C0028F9
:1002F000F3D123462A463046BDE8F04100F00CB861
:10030000000000002D0000002B0000002000000075
:1003100070477047704770472DE9F0470D46994682
:100320009246044600F124080168880604D5E06975
:1003300021F01001216000E00120A84201DD471BEF
:1003400000E00027A1697A1902EB0900081AA061F0
:100350002078C00602D42046AFF30080002608E0D3
:10036000D4E901211AF806009047206A401C761C47
:1003700020624E45F4DB2078C0060AD52046AFF354
:10038000008006E0D4E9012130209047206A401C1B
:100390002062381EA7F10107F4DC07E0D4E901214F
:1003A00018F805009047206A401C2062281EA5F11D
:1003B0000105F3DC2046AFF300802078000602D56B
:1003C0000220BDE8F0870120FBE70000074B70B575
:1003D0000D467B4400F011F80446284600F020F852
:1003E00010B14FF0FF3070BD204670BD3F0D0000D2
:1003F00001694A1C02610878704700B58FB0CDE9E9
:1004000001310021059105497944CDE903101146D8
:100410006846FFF70DFF0FB000BD0000E5FFFFFFCE
:10042000007B00F080007047754600F029F8AE466A
:1004300005006946534620F00700854618B020B5F0
:10044000FFF7D6FEBDE820404FF000064FF0000752
:100450004FF000084FF0000B21F00701AC46ACE86C
:10046000C009ACE8C009ACE8C009ACE8C0098D46D9
:1004700070470446AFF300802046FFF7A5FE00005A
:10048000004870475C00002000BFFEE770472DE980
:10049000F04102460025002600200023002400270A
:1004A00091F803C00CF00F0591F803C00CF0100C8C
:1004B000BCF1000F03D091F802C04CEA050591F899
:1004C00000C0BCF1000F31D0146800202BE04FF0C9
:1004D000010C0CFA00F3B1F800C00CEA03069E42CE
:1004E00020D183004FF00F0C0CFA03F7BC4305FA40
:1004F00003FC4CEA040491F803C0BCF1280F06D1B8
:100500004FF0010C0CFA00FCC2F814C00AE091F89C
:1005100003C0BCF1480F05D14FF0010C0CFA00FCF0
:10052000C2F810C0401C0828D1D31460B1F800C034
:10053000BCF1FF0F34DD546800202EE000F1080C00
:100540004FF0010808FA0CF3B1F800C00CEA0306FA
:100550009E4221D183004FF00F0C0CFA03F7BC43ED
:1005600005FA03FC4CEA040491F803C0BCF1280F1F
:1005700005D100F1080C08FA0CF8C2F8148091F8C3
:1005800003C0BCF1480F07D100F1080C4FF001087F
:1005900008FA0CF8C2F81080401C0828CED354602A
:1005A000BDE8F0810161704700BFFEE708B5012199
:1005B000042000F049F948208DF80300A420ADF88C
:1005C000000003208DF8020069460248FFF75FFF34
:1005D00008BD0000000801402DE9F04140F2EE2581
:1005E00005261E2000F0D8FC044600F03DFD07461D
:1005F00000F0BAFC8046012C04D11D480068284454
:100600001B490860022C04D119480068401B184996
:1006100008601748006840F2E241884202DD08465F
:100620001349086012480068FA2802DAFA201049D3
:100630000860012F04D10F480068801B0D49086035
:10064000B8F1010F04D10B48006830440949086033
:1006500008480068322802DD322006490860054853
:100660000068002802DA002002490860BDE8F08135
:10067000080000200000002008B50121042000F03F
:10068000E3F810208DF80300ADF8000003208DF88A
:10069000020069460348FFF7FAFE10210148FFF700
:1006A00081FF08BD0008014018B90021094A116006
:1006B0000FE009490968491C074A1160814208D1C5
:1006C00004490968C943054AC2F890110021024A49
:1006D0001160704790012142380000200000214243
:1006E00000BFFEE77047000070B5002100230F2215
:1006F000C47804B3154C246804F4E064C4F5E064E1
:10070000210AC1F10403CA40447804FA03F1847851
:100710001440214309010E4C0678A155047804F0D9
:100720001F050124AC4005786D11AD0005F1E025F1
:10073000C5F8004109E0047804F01F050124AC402D
:10074000044D0678761145F8264070BD0CED00E0AA
:1007500000E400E080E100E002490143024A116048
:10076000704700000000FA050CED00E07047000043
:100770002DE9F04704460D46281B00F0A9FE22494A
:100780000860084601682148006800F061FD1F49C3
:1007900008601F4801681C48006800F07DFF814622
:1007A0001C480168484600F0ABFE80461A4900F03C
:1007B000B1FD0646154801681848006800F0A0FE23
:1007C0008246154900F0A6FD80460F48016814488E
:1007D000006800F095FE82460F4900F09BFD8146BF
:1007E000414600F035FD0746314600F031FD0D4928
:1007F000086005480068064908600A48006800F07B
:100800004BFEBDE8F08700004C00002054000020A3
:1008100058000020180000200000C84214000020EA
:10082000100000205000002029B1064AD26902437E
:10083000044BDA6104E0034AD2698243014BDA6176
:10084000704700000010024029B1064A9269024335
:10085000044B9A6104E0034A92698243014B9A6116
:10086000704700000010024030B500210022002433
:1008700000232D4D6D6805F00C0121B1042905D030
:10088000082923D105E0294D056022E0274D0560A8
:100890001FE0254D6D6805F47012234D6D6805F459
:1008A0008034022505EB92421CB9214D5543056069
:1008B0000BE01D4D6D6805F400351DB11C4D554311
:1008C000056002E0194D5543056002E0174D0560D3
:1008D00000BF00BF144D6D6805F0F0010909154D0A
:1008E0006B5C0568DD4045600F4D6D6805F4E061A7
:1008F000090A104D6B5C4568DD4085600A4D6D68E6
:1009000005F46051C90A0B4D6B5C4568DD40C5605C
:10091000054D6D6805F44041890B074D6B5CC5685A
:10092000B5FBF3F5056130BD0010024000127A00FE
:1009300000093D0024000020340000207047000022
:1009400030B589B005460C4601210420FFF77CFF35
:1009500001210846FFF768FF0120ADF820001820AC
:100960008DF8230003208DF8220008A91B48FFF70B
:100970008EFDADF81850ADF814400020ADF816000B
:10098000ADF81A0005A94FF0804000F0BDF96020D5
:10099000ADF804000020ADF80C000120ADF8060011
:1009A0000020ADF80A0001A94FF0804000F054F992
:1009B00000214FF0804000F09BF90121880700F0F2
:1009C0001DF90121880700F028F940F2EE214FF0CF
:1009D000804000F096F909B030BD000000080140E9
:1009E00010B500F001F810BD0CB50020019000908A
:1009F0003348006840F480303149086000BF304817
:100A0000006800F4003000900198401C01900098AC
:100A100018B90198B0F5A06FF1D12948006800F429
:100A2000003010B10120009001E0002000900098FB
:100A3000012843D12348006840F010002149086094
:100A40000846006820F0030008600846006840F08F
:100A5000020008601A484068194948600846406822
:100A600048600846406840F4806048600846406836
:100A700020F47C1048600846406840F4E810486064
:100A80000846006840F08070086000BF0C480068AD
:100A900000F000700028F9D00948406820F00300F9
:100AA000074948600846406840F00200486000BFBF
:100AB0000348406800F00C000828F9D10CBD000084
:100AC000001002400020024010B504460E480068A5
:100AD00020440D4908600846006840F2E24188421F
:100AE00002DD08460849086007480068FA2802DA6B
:100AF000FA20054908600448008881B24FF0804020
:100B000000F0FFF810BD0000040000207047000056
:100B100010B51348006840F001001149086008460C
:100B20004068104908400E494860084600680E4970
:100B300008400B4908600846006820F480200860DF
:100B40000846406820F4FE0048604FF41F008860AB
:100B5000FFF746FF4FF000600449086010BD000039
:100B6000001002400000FFF8FFFFF6FE08ED00E075
:100B700010B50121114800F05CF801281CD10121B9
:100B80000E4800F047F8FFF727FD0D4801680D48B3
:100B90000068FFF7EDFD0C4908600C4801680A4841
:100BA000006800F0D1F90849086008460068FFF7BE
:100BB0008BFF3220FFF778FD002010BD002C014094
:100BC00008000020040000200C000020000000208D
:100BD00010B50121880700F02CF80121880700F0EA
:100BE00019F810BD10B50121034800F022F80121C9
:100BF000014800F00FF810BD0008004021B1028844
:100C000042F08002028004E002884FF67F731A40AF
:100C100002807047CA430282704721B1028842F0C5
:100C20000102028004E002884FF6FE731A4002803F
:100C3000704702460020138A0B400BB1012000E0F0
:100C4000002070471AB183890B43838102E08389B6
:100C50008B4383817047000070B50024002200237D
:100C6000058C4FF6FE7635400584028C8388048B14
:100C70004FF68F752C40B51E2C400D882C43751EE9
:100C80002A400D892A434D882A43144DA8420BD08F
:100C9000134DA84208D0134DA84205D0124DA842CA
:100CA00002D0124DA84213D14FF6F7752A404D8954
:100CB0002A434FF6FB752A408D882A434FF6FF657D
:100CC0002B404FF6FF552B408D892B43CD892B436D
:100CD00083800483CD888586028470BD002C01400A
:100CE0000034014000400140004401400048014000
:100CF0000A460021018B4FF6F77319401143018317
:100D00007047818670470000002202881D4B984280
:100D10000ED01D4B98420BD0B0F1804F08D01B4B2A
:100D2000984205D01A4B984202D01A4B984204D1EF
:100D30004FF68F731A404B881A43174B984207D0CF
:100D4000164B984204D04FF6FF431A40CB881A4303
:100D500002808B8883850B8803850A4B98420BD0D1
:100D6000094B984208D00E4B984205D00D4B984243
:100D700002D00D4B984201D10B7A03860123838266
:100D800070470000002C0140003401400004004086
:100D900000080040000C004000100040001400401B
:100DA0000040014000440140004801407FB5054635
:100DB0000C460121C802FFF747FDADF80450ADF81D
:100DC00000400020ADF80600ADF8020069460D486D
:100DD000FFF79AFF012211460A48FFF733FF192057
:100DE0008DF80C0001208DF80F008DF80D00032008
:100DF0008DF80E0003A8FFF777FC01210148FFF7EB
:100E00000CFF7FBD002C014021B1828942F40052C9
:100E1000828104E082894DF6FF731A408281704717
:100E2000F0B50346002400260025002040F66A178E
:100E3000B94200D100BF1846C1F3421401F01F06A9
:100E4000012707FA06F5012C01D10C3004E0022C31
:100E500001D1103000E014301AB107682F43076049
:100E600002E00768AF430760F0BD00002DE9F047DE
:100E700086B005460E460024A24600BFA1460027C4
:100E8000B08900B100BF2F462C8A4CF6FF70044099
:100E9000F08804432C82AC894EF6F3100440B088ED
:100EA00031890843718908430443AC81AC8A4FF609
:100EB000FF400440B0890443AC8201A8FFF7D4FC92
:100EC0001F48874202D1DDF810A001E0DDF80CA038
:100ED000A88900F4004040B10AEBCA0000EB0A10F8
:100EE00031684900B0FBF1F807E00AEBCA0000EBFB
:100EF0000A1031688900B0FBF1F86420B8FBF0F00B
:100F000004012009642101FB1089A88900F4004034
:100F100040B1322000EBC900B0FBF1F000F0070057
:100F2000044308E0322000EB09106421B0FBF1F02B
:100F300000F00F0004432C8106B0BDE8F0870000EC
:100F40000038014000BFFEE702468A4201DD084644
:100F500005E04B429A4201DA484200E010467047F1
:100F6000014600BF704700000948007838B10948C1
:100F7000006820B900200649087001207047054824
:100F80000068012801D1024908700020F6E700003E
:100F9000450000201C01214201462D48006828B967
:100FA0002C480088401C2B4A108002E00020294A6F
:100FB00010802748006828B92748007810B9012018
:100FC000254A107025480078B0B9234800780128D8
:100FD00007D123480078401C214A107001201F4A85
:100FE00010701F480078022806D100201C4A10709B
:100FF0001C4A10800220704715480068012804D15F
:101000000020154A1070154A107015480078012804
:101010001CD114480088401C124A108010460088D9
:1010200088420ADD0B480088884206DA00200C4A14
:1010300010700C4A10800120DDE7064800888842C5
:1010400004DD0020064A1070064A10800020D2E716
:1010500014012142420000203C0000203D000020FD
:101060003E000020400000200948007838B10948BF
:10107000006820B900200649087001207047054823
:101080000068012801D1024908700020F6E700003D
:1010900044000020080121424FF0E021096921F0BD
:1010A00004014FF0E0221161C21700EB5272C2F34B
:1010B000C702074B1A701946097801EB4102C2EBCF
:1010C000C1114FF6FF7202EAC101024A1180704756
:1010D0001C0000201E00002001460D4A12884A43D1
:1010E0004FF0E0235A6100229A6101221A6100BF89
:1010F0004FF0E022106900F001021AB100F48032D2
:10110000002AF5D000224FF0E0231A619A6170475F
:101110001E00002000BF054A128802F04002002A8B
:10112000F9D0C2B2014B1B1D1A8070470038014034
:101130004FF4A060FFF710FB4820FFF7ADFF4FF41E
:10114000FA3000F043F8FFF731FAFFF795FA8F21F4
:1011500042F20F70FFF7F4FB6420FFF7BDFF41F68A
:101160001F416320FFF722FE11E00948016809A032
:10117000FFF752F80B4801680BA0FFF74DF80E4837
:1011800001680EA0FFF748F8C820FFF7A5FFECE7BD
:1011900004000020506F736974696F6E3A202564F3
:1011A000202000000000002056656C6F6369747990
:1011B0003A20256420200000080000205461726756
:1011C00065743A2025640D0A0000000010B586B051
:1011D0000446012144F20400FFF736FB4FF400708F
:1011E000ADF8140003208DF8160018208DF81700B4
:1011F00005A91548FFF74BF94FF48060ADF81400CE
:1012000004208DF8170005A90F48FFF740F9019455
:101210000020ADF80800ADF80A00ADF80C00ADF8FC
:1012200010000C20ADF80E0001A90848FFF71EFEC3
:10123000012240F225510548FFF7F2FD0121034844
:10124000FFF7E2FD06B010BD000801400038014084
:1012500090EA010F48BF81F0004100F12482421A58
:101260003CBF801A89184FEAD0524FF07F4C1CEADD
:10127000410FA2EBD15318BF9CEA026F00F03B80F4
:101280004FF0004C4CEA00204CEA012121FA03FC0B
:1012900010EB0C0C1ED202F1FF325FEA1C2040EB77
:1012A000C25038BF70471CF07F0F4FEA400C18BF88
:1012B000BCF17F4F38BF7047C3F12003994008BF8E
:1012C00020F00100BCF17F4F38BF7047A0F1C04053
:1012D00000F0DDB94FEA3C00000A40EBC25028BFE5
:1012E0001CF0FF0F4FEA400CE6D018BFBCF17F4F57
:1012F00038BF7047EAE79CEA026F05D010EA5C0F3E
:1013000008BF00F00040704710B500F07AF900BF48
:1013100064FBBE3E4FF47F0C1CEAD0121EBF1CEAD9
:10132000D11392EA0C0F93EA0C0F00F0858090EA3B
:10133000010F48BF42F4807240F4000C41F40000F9
:101340002CF07F4120F07F4000B58142A2EB0302E8
:101350000FF2081CACEB504EC0F100009EF800E00C
:101360004FEA4E0E00FB0EFC38BF49004FEA2C1C22
:1013700002F5FA020CFB0EF34FEACE1E4FEA112CD7
:101380004FEAC1210EEB635E42EB22420EFB0CFCE6
:101390004FEA1C5300FB03114FEA112C4FEA0131B5
:1013A0000EFB0CFC4FEADC4C00FB0C11C14228BFC9
:1013B00009184CEB03335DF804EB10EB410143EBF0
:1013C000C250B2F57C0F38BF704729D512F0F00F2C
:1013D0001CBF00F1C04000F00040704700818283D4
:1013E0008485868788898B8C8D8E8F919293959634
:1013F00097999A9C9D9FA0A2A3A5A7A8AAACAEB0BE
:10140000B2B3B5B7B9BCBEC0C2C5C7C9CCCED1D4C2
:10141000D7D9DCDFE2E6E9ECF0F3F7FAFE000000F2
:101420004FEA400C0CF1807CBCF17E4F28BF704726
:10143000B0F1C04000F02BB990EA010F0CEAD113D3
:1014400048BF42F48072624538BF634507D213F447
:101450007F0F16D080EA010000F00040704710B501
:1014600000F0CFF8097EFC3E00F005B880EA0100EC
:1014700000F00040704780EA010000F0004000F0FA
:1014800006B912F47F0F04BF0248704780EA0100DA
:1014900000F0FDB80000C07F41000B0ED3F19E02AA
:1014A00008D950F400034FEA032323FA02F048BF9F
:1014B0004042704710B500F0A4F800BF4992248064
:1014C000002070476FF0004282EA20007047000061
:1014D00010F0004148BF4042B0FA80F310FA03F226
:1014E000C3F19D030BD051EAC35101EB1220530607
:1014F00038BF704700F1010008BF20F001007047BD
:101500004FF47F0C1CEAD0121EBF1CEAD11392EAE2
:101510000C0F93EA0C0F00F0478090EA010F48BFD0
:1015200042F480724FF0004C4CEA00204CEA01215A
:1015300002EB0302A0FB0113A2F50002002918BF71
:1015400043F001035B0028BF4FEA330342EB224222
:101550005FEA132C4CEBC2502EBFBCEB436FB2F5CD
:101560007C0F70474FEA036CBCF1004F08BF20F0BE
:101570000100B2F57C0F38BF70470BD582F0FF0237
:1015800012F5803FC8BF704700F1C040D8BF00F0DF
:101590000040704700F5000C5FEA4C0C48BF7047F4
:1015A000B0F1C04000F073B890EA010F0CEAD1131B
:1015B00048BF42F48072624538BF634504D280EA76
:1015C000010000F00040704710B500F01AF800BFAD
:1015D0008900013E00F007B800F009B85FEA410C4D
:1015E0005FEA1C6C08D080EA010000F050B85FEAA6
:1015F000400C5FEA1C6CF6D14FF00040A0F5800073
:1016000070470EF1020E2EF0030E5EF8044B2442DA
:1016100004D44FEA4102B2F17F4F11D84FEA4003A0
:10162000B3F17F4F0CD80ED14FEAD07CB2F17F4F8F
:101630000CEB4C0C0CF1020C08BF4CEBD17C04E021
:101640004FF0080C01E04FEAD17C0CEB4C0324FA7C
:1016500003F404F00704B4F1040C06D20EEB840C7E
:10166000BDE810404CF0010C6047DFE80CF00708C3
:1016700002024FF00040A0F5800010BD0846420075
:1016800018BFD2F1807288BF00F0004010BDFF216A
:1016900041EAD050C005704790EA010F48BF81F081
:1016A00000413FF5DCAD421A04D882F00042A0EBC5
:1016B000020011444FEAD0524FF07F4C1CEA410F18
:1016C000A2EBD15318BF9CEA026F4AD04FF0004CF6
:1016D0004CEA00204CEA012121FA03FCB0EB0C0C8F
:1016E0000FD412F0FE0F36D05FEA4C001DD5001269
:1016F00040EBC25038BF70471CF03F0F18BF704717
:101700000BE0A2F101025FEA1C2040EBC25038BF9F
:1017100070471CF07F0F18BF7047C3F1200399403A
:1017200014BF401E20F00100704780084FEA1223CA
:1017300008BF7047B0FA80FCA2EB0C02CCF1280C79
:1017400060FA0CF093EA122F04BF00EBC25070470E
:101750004FEAC3707047130A5FEADC1008BF704796
:10176000F6E79CEA026F04D010EA5C0F08BF002085
:10177000704710B5FFF745FF40DFF63E81F00040AF
:1017800070470000A4170008000000205C00000063
:101790006C010008001800085C00002064060000CE
:1017A0008801000814000000EE020000EE020000B4
:1017B000000000000000F042CDCCCC3D0000FA4318
:1017C000000000000000000000000000010203040F
:1017D00001020304060708090204060800000000CD
:1017E00000000000000000000101000000000000F7
:1017F00000000000000000000000000000000000E9
:04000005080001D519
:00000001FF
